:100000000C943E000C9448000C9448000C9448005A
:100010000C9448000C9448000C9448000C94480040
:100020000C9448000C9448000C9448000C94480030
:100030000C9448000C9448000C9448000C94480020
:100040000C9448000C9448000C9448000C94480010
:100050000C9448000C9448000C9448000C94480000
:100060000C9448000C9448000C9448000C944800F0
:100070000C9448000C9448000C94480011241FBEB6
:10008000CFEFD8E0DEBFCDBF0E945B000C94A30091
:100090000C940000909389008093880090938B00CB
:1000A00080938A0081EA8093800082E080938100BF
:1000B00010928200089510928500109284008FEFB4
:1000C0008AB98EEF90E00E944A002FEF83ED90E313
:1000D000215080409040E1F700C000008FEB90E09D
:1000E0000E944A002FEF83ED90E321508040904022
:1000F000E1F700C000008FE790E00E944A002FEF78
:1001000083ED90E3215080409040E1F700C0000073
:1001100080E490E00E944A002FEF83ED90E32150AD
:1001200080409040E1F700C0000090E080E00E9435
:100130004A002FEF83ED90E3215080409040E1F79B
:0A01400000C00000BECFF894FFCF0E
:00000001FF
