:100000000C943E000C9453000C9453000C94530039
:100010000C9453000C9453000C9453000C94530014
:100020000C9453000C9453000C9453000C94530004
:100030000C9453000C9453000C9453000C945300F4
:100040000C9453000C9453000C9453000C945300E4
:100050000C9453000C9453000C9453000C945300D4
:100060000C9453000C9453000C9453000C945300C4
:100070000C9453000C9453000C94530011241FBE95
:10008000CFEFD8E0DEBFCDBF11E0A0E0B1E0EAE8FD
:10009000F1E002C005900D92A831B107D9F70E9496
:1000A00055000C94C3000C940000CDB7DEB7AE979A
:1000B0000FB6F894DEBF0FBECDBF8FEF81B987E1D9
:1000C000E0E0F1E0DE01589601900D928A95E1F7AB
:1000D0001A821982FE01339685E1DF011D928A950D
:1000E000E9F747E150E070E060E0CE0148960E94F9
:1000F000AB0047E150E070E060E0CE0101960E9465
:100100009B00FE017896DE011196CE018F9631910B
:100110002D9132130EC0E817F907C9F781E082B9B3
:1001200090E080E0AE960FB6F894DEBF0FBECDBF74
:10013000089582E0F4CFDC01CB01FC01F999FECFF8
:1001400006C0F2BDE1BDF89A319600B40D9241505F
:100150005040B8F70895DC01CB0103C02D910E94F7
:10016000B60041505040D0F70895262FF999FECFA0
:100170001FBA92BD81BD20BD0FB6F894FA9AF99AC4
:0A0180000FBE01960895F894FFCF1A
:10018A00504F4C59544543484E49515545204D4FBF
:08019A004E545245414C000097
:00000001FF
