:100000000C943E000C9453000C9453000C94530039
:100010000C9453000C9453000C9453000C94530014
:100020000C9453000C9453000C9453000C94530004
:100030000C9453000C9453000C9453000C945300F4
:100040000C9453000C9453000C9453000C945300E4
:100050000C9453000C9453000C9453000C945300D4
:100060000C9453000C9453000C9453000C945300C4
:100070000C9453000C9453000C94530011241FBE95
:10008000CFEFD8E0DEBFCDBF11E0A0E0B1E0E2E508
:10009000F1E002C005900D92A631B107D9F70E9498
:1000A00073000C94A7000C9400001092C5008FEC14
:1000B0008093C4001092C000E1ECF0E08081886180
:1000C0008083E2ECF0E080818660808308959091E7
:1000D000C00095FFFCCF9091C1009E7F9093C1001E
:1000E0008093C6000895CDB7DEB765970FB6F89434
:1000F000DEBF0FBECDBF8FEF8AB90E94550025E14C
:10010000E0E0F1E0CE010196DC0101900D922A952C
:10011000E1F724E6F22EE82EB92E6E0185E1C80E35
:10012000D11C0E2D1B2DF80181918F010E946700BB
:100130000C151D05C1F7FA94F110F3CF90E080E0A3
:1001400065960FB6F894DEBF0FBECDBF0895F89444
:02015000FFCFDF
:100152004C6520726F626F7420656E20494E463185
:060162003930300A0000F4
:00000001FF
