:100000000C943E000C9453000C9453000C94530039
:100010000C9453000C9453000C9453000C94530014
:100020000C9453000C9453000C9453000C94530004
:100030000C9453000C9453000C9453000C945300F4
:100040000C9453000C9453000C9453000C945300E4
:100050000C9453000C9453000C9453000C945300D4
:100060000C9453000C9453000C9453000C945300C4
:100070000C9453000C9453000C94530011241FBE95
:10008000CFEFD8E0DEBFCDBF11E0A0E0B1E0E6ECFD
:10009000F1E002C005900D92A831B107D9F70E9496
:1000A00073000C94E1000C9400001092C5008FECDA
:1000B0008093C4001092C000E1ECF0E08081886180
:1000C0008083E2ECF0E080818660808308959091E7
:1000D000C00095FFFCCF9091C1009E7F9093C1001E
:1000E0008093C6000895CDB7DEB7AE970FB6F894EB
:1000F000DEBF0FBECDBF1FEF1AB90E94550011B968
:1001000087E1E0E0F1E0DE01589601900D928A95DA
:10011000E1F71A821982FE01339685E1DF011D9213
:100120008A95E9F77E01B8E1EB0EF11C47E150E05A
:1001300070E060E0C7010E94C90047E150E070E054
:1001400060E0CE0101960E94B9008E010F5F1F4F43
:10015000F80181918F010E9467000E151F05C1F7FC
:1001600090E080E0AE960FB6F894DEBF0FBECDBF34
:100170000895DC01CB01FC01F999FECF06C0F2BD68
:10018000E1BDF89A319600B40D9241505040B8F755
:100190000895DC01CB0103C02D910E94D400415091
:1001A0005040D0F70895262FF999FECF1FBA92BD7F
:1001B00081BD20BD0FB6F894FA9AF99A0FBE019648
:0601C0000895F894FFCF42
:1001C600504F4C59544543484E49515545204D4F83
:0801D6004E545245414C00005B
:00000001FF
