:100000000C943E000C9452000C9450000C94500040
:100010000C9450000C9450000C9450000C94500020
:100020000C9450000C9450000C9450000C94500010
:100030000C9450000C9458000C9450000C945000F8
:100040000C9450000C9450000C9450000C945000F0
:100050000C9450000C9450000C9450000C945000E0
:100060000C9450000C9450000C9450000C945000D0
:100070000C9450000C9450000C94500011241FBE9E
:10008000CFEFD8E0DEBFCDBF21E0A0E0B1E001C0FE
:100090001D92A230B207E1F70E947F000C94B300DA
:1000A0000C9400008F9381E0809300018F9118954C
:1000B0008F9381E0809301018F9118951092010137
:1000C000109285001092840090938900809388009C
:1000D000109280008DE0809381001092820082E077
:1000E00080936F000895F8948FEF81B91AB8E89A59
:1000F000E9E6F0E0808181608083789408950E9431
:1001000073002FEF83E294EF215080409040E1F79D
:1001100000C0000082E082B92FEF80E792E021501A
:1001200080409040E1F700C0000012B884E89EE1F2
:100130000E945E001092000180910101811104C0B3
:10014000809100018823C1F3F894809100018130EF
:1001500021F482B990E080E008958091010181301E
:0A016000C9F782E0F6CFF894FFCF54
:00000001FF
