:100000000C943E000C9452000C9450000C94500040
:100010000C9450000C9450000C9450000C94500020
:100020000C9450000C9450000C9450000C94500010
:100030000C9450000C9450000C9450000C94500000
:100040000C9450000C9450000C9450000C945000F0
:100050000C9450000C9450000C9450000C945000E0
:100060000C9450000C9450000C9450000C945000D0
:100070000C9450000C9450000C94500011241FBE9E
:10008000CFEFD8E0DEBFCDBF21E0A0E0B1E001C0FE
:100090001D92A130B207E1F70E9487000C94BD00C9
:1000A0000C9400000F920FB60F921F9211245F93D1
:1000B0006F937F938F939F93AF93BF938FE59AEE48
:1000C0000197F1F700C000008091000190E00196D7
:1000D00063E070E00E94950080930001E09ABF9178
:1000E000AF919F918F917F916F915F911F900F9032
:1000F0000FBE0F901895F8948FEF81B91AB8E89A4F
:10010000E9E6F0E0808183608083789408950E941E
:100110007B0080910001813031F0823021F081112B
:10012000F8CF12B8F6CF82B9F4CF97FB072E16F4AA
:10013000009407D077FD09D00E94A90007FC05D0E4
:100140003EF4909581959F4F0895709561957F4FEE
:100150000895AA1BBB1B51E107C0AA1FBB1FA6170E
:10016000B70710F0A61BB70B881F991F5A95A9F760
:0E01700080959095BC01CD010895F894FFCFC5
:00000001FF
